:100000000C9462000C948A000C948A000C948A0070
:100010000C948A000C948A000C948A000C948A0038
:100020000C948A000C948A000C948A000C948A0028
:100030000C948A000C948A000C948A000C948A0018
:100040000C94A5050C948A000C9473050C944D0532
:100050000C948A000C948A000C948A000C948A00F8
:100060000C948A000C948A000000000024002700F1
:100070002A0000000000250028002B0000000000DE
:1000800023002600290004040404040404040202DA
:100090000202020203030303030301020408102007
:1000A0004080010204081020010204081020000012
:1000B0000008000201000003040700000000000027
:1000C0000000EF0511241FBECFEFD8E0DEBFCDBF8B
:1000D00011E0A0E0B1E0ECE9F5E102C005900D927D
:1000E000AC35B107D9F722E0ACE5B1E001C01D9213
:1000F000A934B207E1F710E0C2E6D0E004C02197CE
:10010000FE010E942C08C136D107C9F70E942206C1
:100110000C94CC0A0C940000E4EAF1E0A089B189C7
:1001200082E08C93A485B5851C92A685B78580E175
:100130008C93108EA489B58986E08C93A289B389AB
:100140008C9180618C93A289B3898C9188608C9307
:10015000A289B3898C9180688C930288F389E02D01
:1001600080818F7D80830895CF92DF92EF92FF92FE
:100170000F931F93CF93DF936C017A018B01C0E043
:10018000D0E0CE15DF0589F0D8016D918D01D60143
:10019000ED91FC910190F081E02DC6010995892B2C
:1001A00011F47E0102C02196ECCFC701DF91CF91FF
:1001B0001F910F91FF90EF90DF90CF900895FC0179
:1001C000918D828D981761F0828DDF01A80FB11D8E
:1001D0005D968C91928D9F5F9F73928F90E00895B2
:1001E0008FEF9FEF0895FC01918D828D981731F06C
:1001F000828DE80FF11D858D90E008958FEF9FEFC0
:100200000895FC01918D228D892F90E0805C9F4F95
:10021000821B91098F739927089584EA91E00E94C7
:10022000010121E0892B09F420E0822F0895FC01CF
:10023000848DDF01A80FB11DA35ABF4F2C91848D6F
:1002400090E001968F739927848FA689B7892C93A4
:10025000A089B1898C9180648C93938D848D98133F
:1002600006C00288F389E02D80818F7D8083089508
:10027000EF92FF920F931F93CF93DF93EC0181E0F6
:10028000888F9B8D8C8D981305C0E889F9898081B2
:1002900085FD24C0F62E0B8D10E00F5F1F4F0F73EE
:1002A0001127E02E8C8DE8120CC00FB607FCFACF98
:1002B000E889F989808185FFF5CFCE010E94170179
:1002C000F1CF8B8DFE01E80FF11DE35AFF4FF08255
:1002D0000B8FEA89FB898081806207C0EE89FF89E4
:1002E0006083E889F98980818064808381E090E07F
:1002F000DF91CF911F910F91FF90EF900895CF93D1
:10030000DF93EC01888D8823C9F0EA89FB8980811D
:1003100085FD05C0A889B9898C9186FD0FC00FB6EF
:1003200007FCF5CF808185FFF2CFA889B9898C9130
:1003300085FFEDCFCE010E941701E7CFDF91CF916E
:10034000089580E090E0892B29F00E940D01811131
:100350000C9400000895833081F028F4813099F0E6
:100360008230A1F008958730A9F08830B9F0843048
:10037000D1F4809180008F7D03C0809180008F77C1
:1003800080938000089584B58F7702C084B58F7DF7
:1003900084BD08958091B0008F7703C08091B00034
:1003A0008F7D8093B0000895CF93DF93282F30E0A6
:1003B000F901E255FF4F8491F901E656FF4FD491C0
:1003C000F901EA57FF4FC491CC2391F081110E94AB
:1003D000AB01EC2FF0E0EE0FFF1FE458FF4FA591AB
:1003E000B491EC91ED2381E090E021F480E002C033
:1003F00080E090E0DF91CF9108951F93CF93DF933A
:10040000282F30E0F901E255FF4F8491F901E656BB
:10041000FF4FD491F901EA57FF4FC491CC23C9F0A3
:10042000162F81110E94AB01EC2FF0E0EE0FFF1FA1
:10043000EE58FF4FA591B4918FB7F894111105C0F4
:100440009C91ED2FE095E92302C0EC91ED2BEC930C
:100450008FBFDF91CF911F910895CF93DF9390E0ED
:10046000FC01E656FF4F2491FC01EA57FF4F8491AF
:10047000882361F190E0880F991FFC01E859FF4F34
:10048000C591D491FC01EE58FF4FA591B491611133
:1004900009C09FB7F8948881209582238883EC91C6
:1004A0002E230BC0623061F49FB7F8943881822FFD
:1004B000809583238883EC912E2B2C939FBF06C0BD
:1004C0008FB7F894E8812E2B28838FBFDF91CF91CF
:1004D00008953FB7F8948091610190916201A091D5
:1004E0006301B091640126B5A89B05C02F3F19F0A8
:1004F0000196A11DB11D3FBFBA2FA92F982F8827A4
:10050000820F911DA11DB11DBC01CD0142E0660FFE
:10051000771F881F991F4A95D1F708958F929F9250
:10052000AF92BF92CF92DF92EF92FF926B017C016C
:100530000E9469024B015C01C114D104E104F10481
:10054000F1F00E946902DC01CB0188199909AA091E
:10055000BB09883E9340A105B10570F321E0C21AA2
:10056000D108E108F10888EE880E83E0981EA11CEE
:10057000B11CC114D104E104F10419F7DDCFFF90DF
:10058000EF90DF90CF90BF90AF909F908F900895A5
:100590002FB7F89460915D0170915E0180915F01C9
:1005A000909160012FBF0895AF92BF92CF92DF92DA
:1005B000EF92FF920F931F93CF93DF93EC018D8502
:1005C0009E85892B61F461E089850E94FD018BE4A1
:1005D00090E00197F1F760E089850E94FD01CB84EE
:1005E0000F81DD8087E0E82EF12C10E097E0A92E46
:1005F000B12C61E0802F0E94FD018D2DC1100AC039
:100600000E94D40195012E193F0901C0880F2A9537
:10061000EAF707C00E94D4010E2C01C0880F0A948B
:10062000EAF7182B60E0802F0E94FD0181E0E81AB4
:10063000F108F8F61C83812FDF91CF911F910F9164
:10064000FF90EF90DF90CF90BF90AF900895CF9341
:10065000FC01C4810E94D40291E0C81301C090E063
:10066000892FCF910895089508950E94290A611550
:10067000710579F0FB0101900020E9F73197AF0196
:10068000461B570BDC01ED91FC910280F381E02DBC
:10069000099480E090E00895CF93DF93FC014481BA
:1006A00055816081718184EA91E00E94B400EC017F
:1006B00068E571E084EA91E00E9437038C0F9D1F8A
:1006C000DF91CF9108954F925F926F927F92EF9258
:1006D000FF920F931F93CF93DF93CDB7DEB7A19710
:1006E0000FB6F894DEBF0FBECDBF7C01FA01CB017F
:1006F00019A2223008F42AE08E010F5D1F4F422E0E
:10070000512C612C712CBF01A30192010E94730A2C
:10071000F901CA01015011096A3014F4605D01C089
:10072000695CD8016C93232B242B252B61F7B8012E
:10073000C7010E943703A1960FB6F894DEBF0FBE23
:10074000CDBFDF91CF911F910F91FF90EF907F90E0
:100750006F905F904F9008950F931F93CF93DF9307
:10076000EC0188819981009729F02A813B81261725
:10077000370788F48B016F5F7F4F0E945F090097F6
:1007800061F0998388831B830A832C813D81232B0D
:1007900011F4FC01108281E001C080E0DF91CF9173
:1007A0001F910F910895CF93DF93EC018881998178
:1007B000009711F00E94C708198218821D821C82BE
:1007C0001B821A82DF91CF910895EF92FF920F93CF
:1007D0001F93CF93DF93EC01FB0184819581E0802F
:1007E000F1800C811D81E114F104B1F00097B9F0A2
:1007F000080F191FB801CE010E94AC03882361F0D5
:10080000288139818C819D81B701820F931F0E94BD
:10081000370A1D830C8303C0CE010E94D303CE018F
:10082000DF91CF911F910F91FF90EF900895EF927C
:10083000FF920F931F93CF93DF938C017B01611580
:10084000710569F0FB0101900020E9F73197EF0194
:10085000C61BD70BBE010E94AC03811104C0C801A6
:100860000E94D30308C0F801D583C483B7018081F7
:1008700091810E94370AC801DF91CF911F910F919A
:10088000FF90EF900895FC01808191810C94C7083E
:10089000EF92FF920F931F93CF93DF93FC0111828E
:1008A000108213821282158214828617970739F1FB
:1008B000DB010D911C9111970115110501F1EC015E
:1008C0001496ED90FC901597B7010E94AC0381112E
:1008D00009C0CE01DF91CF911F910F91FF90EF9052
:1008E0000C94D303FD82EC82B80188819981DF9159
:1008F000CF911F910F91FF90EF900C94370ADF91E9
:10090000CF911F910F91FF90EF900895AF92BF92FA
:10091000CF92DF92EF92FF920F931F93CF93DF93CB
:10092000CDB7DEB7A4970FB6F894DEBF0FBECDBF2C
:100930006C01FB01848112811A8E198E1C8E1B8E14
:100940001E8E1D8E42E0BE016F5F7F4F90E00E94C1
:10095000490ABE016F5F7F4FCE0149960E9417047E
:100960001A8219821C821B821E821D8286E2F82E48
:10097000FB8A1C8ABE016D5E7F4FCE0101960E94EC
:100980001704BE01675E7F4FCE0101960E94E5030A
:100990005C011C8A1B8A1E8A1D8A188E1F8A84E7A6
:1009A0008F8F18A2BE01615E7F4FCE0143960E94D9
:1009B0001704B501CE0143960E94E503BC01CE01A8
:1009C0004F960E944804CE0143960E944304CE01F4
:1009D00001960E944304CE0149960E9443041C8A5A
:1009E0001B8A1E8A1D8A188E1F8A812F110F990B50
:1009F0004AE0BE016F5F7F4F845B9F4F0E943E0ABB
:100A0000BE016F5F7F4FCE0143960E941704BE0167
:100A1000615E7F4FCE0143960E94E5038C01F9820F
:100A20001A82FC01E480F580FFEFEF1AFF0AB7019C
:100A30000E94AC03882381F0F801208131818481F8
:100A40009581BE016F5F7F4F820F931F0E94370A0F
:100A5000F801F582E48203C0C8010E94D303B80103
:100A6000C6010E944804CE0143960E944304CE0171
:100A70004F960E944304C601A4960FB6F894DEBFB9
:100A80000FBECDBFDF91CF911F910F91FF90EF90DF
:100A9000DF90CF90BF90AF9008951F920F920FB646
:100AA0000F9211242F933F934F935F936F937F93F4
:100AB0008F939F93AF93BF93EF93FF9384EA91E05B
:100AC0000E941701FF91EF91BF91AF919F918F917C
:100AD0007F916F915F914F913F912F910F900FBE3A
:100AE0000F901F9018951F920F920FB60F9211241E
:100AF0002F938F939F93EF93FF93E091B401F09125
:100B0000B5018081E091BA01F091BB0182FD12C074
:100B100090818091BD018F5F8F732091BE018217FC
:100B200051F0E091BD01F0E0EC55FE4F958F8093C0
:100B3000BD0101C08081FF91EF919F918F912F9115
:100B40000F900FBE0F901F9018951F920F920FB627
:100B50000F9211242F933F938F939F93AF93BF9343
:100B600080915D0190915E01A0915F01B091600163
:100B700030915C0123E0230F2D3720F40196A11D55
:100B8000B11D05C026E8230F0296A11DB11D2093BB
:100B90005C0180935D0190935E01A0935F01B0932F
:100BA00060018091610190916201A0916301B09117
:100BB00064010196A11DB11D8093610190936201B2
:100BC000A0936301B0936401BF91AF919F918F9106
:100BD0003F912F910F900FBE0F901F901895E4EA50
:100BE000F1E01382128288EE93E0A0E0B0E084830B
:100BF0009583A683B78382E191E09183808385EC1E
:100C000090E09587848784EC90E09787868780ECD6
:100C100090E0918B808B81EC90E0938B828B82ECC7
:100C200090E0958B848B86EC90E0978B868B118E71
:100C3000128E138E148E82E291E090934202809382
:100C400041020895CF93DF93CDB7DEB72F970FB64C
:100C5000F894DEBF0FBECDBF789484B5826084BDAA
:100C600084B5816084BD85B5826085BD85B58160B0
:100C700085BD80916E00816080936E00109281002E
:100C800080918100826080938100809181008160E9
:100C900080938100809180008160809380008091AA
:100CA000B10084608093B1008091B0008160809336
:100CB000B00080917A00846080937A0080917A00FD
:100CC000826080937A0080917A00816080937A00BC
:100CD00080917A00806880937A001092C10010920F
:100CE00098011092990110929A0110929B01109212
:100CF000660110926701109268011092690160ED1F
:100D000077E080E090E00E948E0284EA91E0909388
:100D10009701809396010E948C000E94C802009166
:100D20006601109167012091680130916901DC0131
:100D3000CB01801B910BA20BB30B84369105A1054F
:100D4000B10538F463E070E080E090E00E948E022C
:100D5000E4CF0E94C802609366017093670180939C
:100D600068019093690166E271E08091960190912B
:100D700097010E9437036AE070E080E090E00E94F3
:100D80008E0281E080936A010E948C008AE091E0EB
:100D90009A8389831C821B8281E090E09F838E83EB
:100DA00082E090E09987888783E090E09B878A873C
:100DB0001F861E861D861C8661E00E942D0261E052
:100DC00088850E942D0260E08E810E942D02CE0156
:100DD00001960E94D4028B819C819093440280935F
:100DE0004302E0914102F09142020190F081E02D36
:100DF00061E472E0CE0101960995CE0101960E9450
:100E00004C03CE0101960E9443040E94C802672B46
:100E1000682B692B09F06FC00E94C802623071050F
:100E20008105910508F067C03DC00E94C80260932B
:100E3000660170936701809368019093690168E38C
:100E400071E080919601909197010E94370360E4D0
:100E500071E080919601909197010E9437030E9462
:100E6000C802AB01BC012AE08091960190919701E4
:100E70000E94630362E471E0809196019091970172
:100E80000E94370365E070E080E090E00E948E02EF
:100E90006AE070E080E090E00E948E0280916A013A
:100EA000811183C0E0914102F09142020280F381FE
:100EB000E02D81E492E009958823A1F0E0914102C0
:100EC000F09142020190F081E02D61E472E0CE01E8
:100ED00001960995CE0101960E944C03CE01019620
:100EE0000E94430461E070E080E090E00E948E0286
:100EF0000E94A1018ACF0E94C8026093A001709352
:100F0000A1018093A2019093A30100919C011091F3
:100F10009D0120919E0130919F016017710782070A
:100F2000930740F460939C0170939D0180939E0110
:100F300090939F0100919C0110919D0120919E0131
:100F400030919F016B017C01C01AD10AE20AF30AB9
:100F5000970186010A3F11052105310508F4A2CF4A
:100F600060939C0170939D0180939E0190939F01DB
:100F70000E94C802009166011091670120916801EA
:100F800030916901DC01CB01801B910BA20BB30BEB
:100F900084369105A105B10508F047CF63E070E004
:100FA00080E090E00E948E02E3CF809196019091C4
:100FB0009701DC01ED91FC910480F581E02D09950C
:100FC000892B99F38091960190919701DC01ED9125
:100FD000FC910480F581E02D0995181619060CF096
:100FE00061CF8091960190919701DC01ED91FC9188
:100FF0000680F781E02D099599278336910551F0F8
:101000008637910509F44ECF88359105D9F61092AF
:101010006A01D8CF6BE471E08091960190919701BD
:101020000E9437032AE041E050E060E070E08091E8
:101030009601909197010E94630362E571E08091AF
:101040009601909197010E94370362E370E080E07F
:1010500090E00E948E0226CFEE0FFF1F0590F491C4
:10106000E02D0994CF93DF938230910510F482E054
:1010700090E0E0914702F091480220E030E0C0E0CB
:10108000D0E0309711F14081518148175907C0F0E5
:101090004817590761F482819381209719F09B8347
:1010A0008A832BC0909348028093470226C0211563
:1010B000310519F04217530718F49A01BE01DF01F8
:1010C000EF010280F381E02DDCCF2115310509F11C
:1010D000281B390B2430310590F412968D919C9188
:1010E00013976115710521F0FB019383828304C07E
:1010F0009093480280934702FD01329644C0FD015F
:10110000E20FF31F81939193225031092D933C9369
:101110003AC02091450230914602232B41F42091A0
:101120000201309103013093460220934502209141
:101130000001309101012115310541F42DB73EB771
:101140004091040150910501241B350BE0914502AB
:10115000F0914602E217F307A0F42E1B3F0B28176D
:10116000390778F0AC014E5F5F4F2417350748F020
:101170004E0F5F1F50934602409345028193919317
:1011800002C0E0E0F0E0CF01DF91CF9108950F932E
:101190001F93CF93DF93009709F48CC0FC01329723
:1011A0001382128200914702109148020115110525
:1011B00081F420813181820F931F2091450230916B
:1011C00046022817390779F5F0934602E093450265
:1011D00071C0D80140E050E0AE17BF0750F412963E
:1011E0002D913C911397AD012115310509F1D901DC
:1011F000F3CF9D01DA013383228360817181860FF1
:10120000971F8217930769F4EC0128813981260F13
:10121000371F2E5F3F4F318320838A819B819383C9
:101220008283452B29F4F0934802E093470242C0A1
:101230001396FC93EE931297ED01499159919E01FB
:10124000240F351FE217F30771F480819181840F19
:10125000951F029611969C938E938281938113968B
:101260009C938E931297E0E0F0E0D80112968D9156
:101270009C911397009719F0F8018C01F6CF8D918E
:101280009C9198012E5F3F4F820F931F2091450242
:10129000309146022817390769F4309729F41092E3
:1012A00048021092470202C0138212821093460233
:1012B00000934502DF91CF911F910F910895A0E017
:1012C000B0E0E5E6F9E00C94990AEC01009721F40E
:1012D000CB010E943208B8C0FC01E60FF71F9C0149
:1012E00022503109E217F30708F4ACC0D9010D917F
:1012F0001C91119706171707B0F00530110508F477
:101300009FC0C80104978617970708F499C0025038
:101310001109061B170B019311936D937C93CF0159
:101320000E94C7088DC05B01A01AB10A4C01800E53
:10133000911EA0914702B091480240E050E0E12C9C
:10134000F12C109709F44AC0A815B905D1F56D9094
:101350007C901197630182E0C80ED11CCA14DB0493
:1013600080F1A3014A195B096A0182E0C80ED11C11
:101370001296BC9012971396AC91B5E0CB16D1049F
:1013800040F0B282A38351834083D9016D937C9353
:101390000AC00E5F1F4FC301800F911FF901918397
:1013A0008083EB2DFA2FE114F10431F0D70113966D
:1013B000FC93EE93129744C0F0934802E0934702E7
:1013C0003FC08D919C9111974817590708F4AC01C3
:1013D0007D0112960D90BC91A02DB3CF8091450256
:1013E0009091460288159905E1F446175707C8F40D
:1013F0008091000190910101009741F48DB79EB753
:101400004091040150910501841B950BE817F907E1
:10141000C8F4F0934602E0934502F90171836083BA
:101420000FC0CB010E9432087C01009759F0A8013F
:10143000BE010E942E0ACE010E94C708C70104C047
:10144000CE0102C080E090E0CDB7DEB7EEE00C94B4
:10145000B50A81E090E0F8940C94CC0AFB01DC0121
:1014600002C001900D9241505040D8F70895FB0101
:10147000DC0101900D920020E1F70895BB274A306E
:1014800031F4992322F4BDE2909581959F4F0C94FD
:101490004A0ABB27FB015527AA27880F991FAA1FB5
:1014A000A41710F0A41B83955051B9F7A05DAA337F
:1014B00008F0A95DA193009779F7B111B19311924A
:1014C000CB010C94630ADC01FC01672F7191772337
:1014D000E1F7329704C07C916D9370836291AE17EF
:1014E000BF07C8F30895A1E21A2EAA1BBB1BFD017A
:1014F0000DC0AA1FBB1FEE1FFF1FA217B307E407F3
:10150000F50720F0A21BB30BE40BF50B661F771F4A
:10151000881F991F1A9469F760957095809590952A
:101520009B01AC01BD01CF0108952F923F924F92D4
:101530005F926F927F928F929F92AF92BF92CF9263
:10154000DF92EF92FF920F931F93CF93DF93CDB76C
:10155000DEB7CA1BDB0B0FB6F894DEBF0FBECDBFE4
:1015600009942A88398848885F846E847D848C84B5
:101570009B84AA84B984C884DF80EE80FD800C81BE
:101580001B81AA81B981CE0FD11D0FB6F894DEBFA1
:0C1590000FBECDBFED010895F894FFCF11
:10159C0000004902800000000000860427030000C0
:1015AC0000003801B4000101DF00F3007F010000EE
:1015BC00000034033303564D4450565F317C315F89
:1015CC00564D4450560D0A00564D4450455F31005F
:1015DC007C005F564D4450450D0A00564D44504317
:0C15EC005F005F564D4450430D0A0000A4
:00000001FF
